:100000000C9435000C945D000C945D000C945D0024
:100010000C945D000C945D000C945D000C945D00EC
:100020000C945D000C945D000C945D000C945D00DC
:100030000C945D000C945D000C945D000C945D00CC
:100040000C9401020C945D000C9471020C944B0210
:100050000C945D000C945D000C945D000C945D00AC
:100060000C945D000C945D001A0411241FBECFEFA8
:10007000D8E0DEBFCDBF21E0A8E3B1E001C01D9212
:10008000A23EB207E1F711E0A0E0B1E0E0EFFCE052
:1000900002C005900D92A833B107D9F710E0C5E36F
:1000A000D0E004C02197FE010E947E04C433D10732
:1000B000C9F70E94A3020C9476060C9400003FB787
:1000C000F8948091390190913A01A0913B01B0914F
:1000D0003C0126B5A89B05C02F3F19F00196A11D34
:1000E000B11D3FBFBA2FA92F982F8827BC01CD0182
:1000F000620F711D811D911D42E0660F771F881FE1
:10010000991F4A95D1F70895AF92BF92CF92DF928F
:10011000EF92FF920F931F93CF93DF936C017B01BC
:100120008B01040F151FEB015E01AE18BF08C0174D
:10013000D10759F06991D601ED91FC910190F081C0
:10014000E02DC6010995892B79F7C501DF91CF9183
:100150001F910F91FF90EF90DF90CF90BF90AF90E5
:100160000895FC01538D448D252F30E0842F90E0BD
:10017000821B930B541710F0CF96089501970895A2
:10018000FC01918D828D981761F0A28DAE0FBF2F6B
:10019000B11D5D968C91928D9F5F9F73928F90E0C1
:1001A00008958FEF9FEF08952FB7F89480913D0148
:1001B00090913E01A0913F01B09140012FBF8093EB
:1001C000490190934A01A0934B01B0934C0181E403
:1001D00091E00E94C00097FF26C02FB7F89480914D
:1001E0003D0190913E01A0913F01B09140012FBF90
:1001F0004091490150914A0160914B0170914C012D
:10020000841B950BA60BB70B4091450150914601FD
:10021000609147017091480184179507A607B707B9
:10022000B0F28FEF9FEF0895FC01918D828D9817AA
:1002300031F0828DE80FF11D858D90E008958FEFEC
:100240009FEF0895FC01918D228D892F90E0805CB5
:100250009F4F821B91098F739927089581E491E044
:100260000E94220121E0892B09F420E0822F0895C9
:1002700080E090E0892B29F00E942E0181110C94DE
:1002800000000895FC01A48DA80FB92FB11DA35A39
:10029000BF4F2C91848D90E001968F739927848FA6
:1002A000A689B7892C93A089B1898C9183708064C9
:1002B0008C93938D848D981306C00288F389E02D6A
:1002C00080818F7D80830895EF92FF920F931F931B
:1002D000CF93DF93EC0181E0888F9B8D8C8D9813F9
:1002E0001AC0E889F989808185FF15C09FB7F89405
:1002F000EE89FF896083E889F98980818370806451
:1003000080839FBF81E090E0DF91CF911F910F919B
:10031000FF90EF900895F62E0B8D10E00F5F1F4FAA
:100320000F731127E02E8C8D8E110CC00FB607FCB9
:10033000FACFE889F989808185FFF5CFCE010E9447
:100340004201F1CFEB8DEC0FFD2FF11DE35AFF4F72
:10035000F0829FB7F8940B8FEA89FB8980818062D5
:10036000CFCFCF93DF93EC01888D8823B9F0AA8992
:10037000BB89E889F9898C9185FD03C0808186FD60
:100380000DC00FB607FCF7CF8C9185FFF2CF8081AF
:1003900085FFEDCFCE010E944201E9CFDF91CF91E1
:1003A000089542E050E068E171E081E491E00C944E
:1003B00084000F931F93CF93DF93EC018881998181
:1003C000009759F02A813B812617370730F081E0EA
:1003D000DF91CF911F910F9108958B016F5F7F4F38
:1003E0000E94A905009759F0998388831B830A838B
:1003F0002C813D81232B59F7FC011082E8CF80E04E
:10040000E7CF1F920F920FB60F9211242F933F93B5
:100410008F939F93AF93BF9380913D0190913E0145
:10042000A0913F01B09140013091380123E0230FAA
:100430002D3758F50196A11DB11D209338018093E9
:100440003D0190933E01A0933F01B0934001809104
:10045000390190913A01A0913B01B0913C01019684
:10046000A11DB11D8093390190933A01A0933B01E6
:10047000B0933C01BF91AF919F918F913F912F918C
:100480000F900FBE0F901F90189526E8230F02962D
:10049000A11DB11DD2CF1F920F920FB60F92112442
:1004A0002F933F934F935F936F937F938F939F937C
:1004B000AF93BF93EF93FF9381E491E00E944201D9
:1004C000FF91EF91BF91AF919F918F917F916F912C
:1004D0005F914F913F912F910F900FBE0F901F9002
:1004E00018951F920F920FB60F9211242F938F938E
:1004F0009F93EF93FF93E0915101F091520180811E
:10050000E0915701F091580182FD1BC090818091CC
:100510005A018F5F8F7320915B01821741F0E09148
:100520005A01F0E0EF5BFE4F958F80935A01FF91E7
:10053000EF919F918F912F910F900FBE0F901F9071
:1005400018958081F4CFCF93DF93CDB7DEB72C978A
:100550000FB6F894DEBF0FBECDBF789484B582602D
:1005600084BD84B5816084BD85B5826085BD85B557
:10057000816085BD80916E00816080936E001092D5
:100580008100809181008260809381008091810050
:1005900081608093810080918000816080938000E1
:1005A0008091B10084608093B1008091B00081603F
:1005B0008093B00080917A00846080937A0080916B
:1005C0007A00826080937A0080917A0081608093C3
:1005D0007A0080917A00806880937A001092C1003E
:1005E000E0915101F091520182E08083E0914D0150
:1005F000F0914E011082E0914F01F09150018FEC8B
:10060000808310925901E0915501F091560186E0E6
:100610008083E0915301F091540180818061808357
:10062000E0915301F0915401808188608083E091D2
:100630005301F0915401808180688083E0915301DF
:10064000F091540180818F7D808390E0E92E90E0CD
:10065000F92E4BE050E06BE171E081E491E00E9403
:1006600084000E94D10181E491E00E9422011816C9
:1006700019060CF097C018861F821A8619861C86E8
:100680001B8670E060E0CE0107960E94D9012F81A1
:10069000388581112BC02115310519F0C9010E943F
:1006A000200518861F821C861B861A8619860E94C2
:1006B000D40097FD23C089831A820B851C850F5FA8
:1006C0001F4FB801CE0107960E94D901882379F304
:1006D0002F8138858B859C85BE016F5F7F4F820F90
:1006E000931F0E946F061C870B87E1CF1C861B8619
:1006F0006AE171E0C9010E946F06D9CF1A8219829E
:100700001C821B821E821D826FE070E0CE0101966A
:100710000E94D90129813A81811175C021153105C5
:1007200019F0C9010E9420051A8219821E821D82B9
:100730001C821B82AF80B884A114B10409F46DC07F
:100740000B851C8501151105B9F08D819E81080F5F
:10075000191FB801CE0101960E94D901882309F41E
:100760005CC029813A818D819E81B501820F931FE2
:100770000E946F061E830D834D815E8169817A819F
:1007800081E491E00E9484000E94D10189819A81D4
:10079000009711F00E9420058F819885009711F035
:1007A0000E9420050E945F004B015C0188EE482EEC
:1007B00083E0582E612C712C0E945F006819790922
:1007C0008A099B09683E734081059105A8F321E0E1
:1007D000421A51086108710888EE880E83E0981E5D
:1007E000A11CB11C411451046104710429F7E114E6
:1007F000F10409F42ECF0E942E01882309F429CF99
:100800000E94000026CF8FE090E09E838D8367E2F8
:1008100071E0C9010E946F068DCF89819A8100978E
:1008200011F00E9420051A8219821E821D821C82EC
:100830001B82A2CFE1E4F1E01382128288EE93E002
:10084000A0E0B0E084839583A683B7838AE091E03B
:100850009183808385EC90E09587848784EC90E099
:100860009787868780EC90E0918B808B81EC90E07D
:10087000938B828B82EC90E0958B848B86EC90E05E
:10088000978B868B118E128E138E148E08952F9255
:100890003F924F925F926F927F928F929F92AF9210
:1008A000BF92CF92DF92EF92FF920F931F93CF935D
:1008B000DF93CDB7DEB7CA1BDB0B0FB6F894DEBFF4
:1008C0000FBECDBF09942A88398848885F846E841A
:1008D0007D848C849B84AA84B984C884DF80EE8064
:1008E000FD800C811B81AA81B981CE0FD11D0FB66D
:1008F000F894DEBF0FBECDBFED010895EE0FFF1FD0
:100900000590F491E02D09940F931F93CF93DF93FB
:100910008230910510F482E090E0E091E001F091E6
:10092000E10130E020E0B0E0A0E0309799F421153B
:10093000310509F44AC0281B390B24303105D8F59C
:100940008A819B816115710589F1FB019383828303
:10095000FE0111C04081518102811381481759075E
:10096000E0F04817590799F4109761F012960C932C
:10097000129713961C933296CF01DF91CF911F915E
:100980000F9108950093E0011093E101F4CF211538
:10099000310551F04217530738F0A901DB019A01E4
:1009A000BD01DF01F801C1CFEF01F9CF9093E10163
:1009B0008093E001CDCFFE01E20FF31F819391936D
:1009C0002250310939832883D7CF2091DE0130911D
:1009D000DF01232B41F42091020130910301309378
:1009E000DF012093DE0120910001309101012115EA
:1009F000310541F42DB73EB74091040150910501F6
:100A0000241B350BE091DE01F091DF01E217F307C3
:100A1000A0F42E1B3F0B2817390778F0AC014E5F6E
:100A20005F4F2417350748F04E0F5F1F5093DF01CB
:100A30004093DE01819391939FCFF0E0E0E09CCF63
:100A4000CF93DF930097E9F0FC0132971382128273
:100A5000A091E001B091E101ED0130E020E01097BC
:100A6000A1F420813181820F931F2091DE0130910A
:100A7000DF012817390709F061C0F093DF01E09327
:100A8000DE01DF91CF910895EA01CE17DF07E8F587
:100A90004A815B819E0141155105B1F7E901FB8354
:100AA000EA8349915991C40FD51FEC17FD0761F4F2
:100AB000808191810296840F951FE9019983888333
:100AC000828193819B838A83F0E0E0E012968D918E
:100AD0009C9113970097B9F52D913C911197CD01F9
:100AE0000296820F931F2091DE013091DF012817BB
:100AF000390739F6309751F51092E1011092E00173
:100B0000B093DF01A093DE01BCCFD383C2834081C9
:100B10005181840F951FC817D90761F44E5F5F4F4D
:100B200088819981480F591F518340838A819B8115
:100B3000938382832115310509F0B0CFF093E10151
:100B4000E093E0019ECFFD01DC01C0CF1382128251
:100B5000D7CFB0E0A0E0EFEAF5E00C9449048C01B7
:100B6000009751F4CB010E9484048C01C801CDB7D9
:100B7000DEB7E0E10C946504FC01E60FF71F9C0171
:100B800022503109E217F30708F49DC0D901CD9135
:100B9000DC911197C617D70798F0C530D10530F30F
:100BA000CE0104978617970708F3C61BD70B229729
:100BB000C193D1936D937C93CF010E942005D6CF32
:100BC0005B01AC1ABD0A4C018C0E9D1EA091E00188
:100BD000B091E101512C412CF12CE12C109731F511
:100BE0008091DE019091DF018815990509F05CC0C4
:100BF0004616570608F058C08091000190910101F7
:100C0000009741F48DB79EB74091040150910501C2
:100C1000841B950BE817F90708F055C0F093DF0126
:100C2000E093DE01F90171836083A0CF8D919C91E7
:100C3000119712966C90129713967C901397A815A3
:100C4000B90559F56C0142E0C40ED11CCA14DB048D
:100C500020F1AC014A195B09DA011296159780F070
:100C60006282738251834083D9016D937C93E11436
:100C7000F10471F0D7011396FC93EE93129776CF9F
:100C800022968C0F9D1FF90191838083F301EFCF92
:100C9000F093E101E093E00169CF4816590608F4AA
:100CA0002C017D01D3019ACFCB010E9484047C01E9
:100CB000009749F0AE01B8010E946606C8010E9483
:100CC0002005870153CF10E000E050CFFB01DC018D
:100CD00002C001900D9241505040D8F70895FB0199
:100CE000DC0101900D920020E1F70895F894FFCF08
:100CF0000000E20180000000000064018400B100F7
:100D0000B1012201C00014010D0A0048656C6C6F2E
:100D100020584265652100526563656976656420E7
:080D2000646174613A200000D7
:00000001FF
