:100000000C9463000C948B000C948B000C94C9032B
:100010000C94C9030C94C9030C948B000C948B00B2
:100020000C948B000C948B000C948B000C948B0024
:100030000C948B000C948B000C948B000C948B0014
:100040000C9427030C948B000C9497030C9471036D
:100050000C948B000C948B000C948B000C948B00F4
:100060000C948B000C948B000000000024002700EF
:100070002A0000000008000201000003040700003D
:1000800000000000000000000000230026002900FE
:1000900000000000250028002B00040404040404D0
:1000A0000404020202020202030303030303010227
:1000B00004081020408001020408102001020408F6
:1000C00010206F04B50611241FBECFEFD8E0DEBFAD
:1000D000CDBF11E0A0E0B1E0E8ECFDE002C005908A
:1000E0000D92A638B107D9F722E0A6E8B1E001C029
:1000F0001D92AF38B207E1F710E0C2E6D0E004C0CD
:100100002197FE010E94D106C136D107C9F70E948E
:1001100018050C94D7060C940000833081F028F465
:10012000813099F08230A9F008958730A9F08830A5
:10013000C9F08430B1F4809180008F7D03C080913C
:1001400080008F7780938000089584B58F7784BD79
:10015000089584B58F7DFBCF8091B0008F77809319
:10016000B00008958091B0008F7DF9CFCF93DF93D9
:1001700090E0FC01E255FF4F249186569F4FFC0111
:1001800084918823C9F090E0880F991FFC01E859F9
:10019000FF4FA591B491FC01E057FF4FC591D49159
:1001A00061110DC09FB7F8948C91209582238C9398
:1001B0008881282328839FBFDF91CF9108956230E3
:1001C00051F49FB7F8943C91822F809583238C93B0
:1001D000E8812E2BEFCF8FB7F894EC912E2B2C9338
:1001E0008FBFEACF3FB7F8948091CF019091D001B3
:1001F000A091D101B091D20126B5A89B05C02F3F97
:1002000019F00196A11DB11D3FBFBA2FA92F982F3C
:100210008827BC01CD01620F711D811D911D42E037
:10022000660F771F881F991F4A95D1F708958F92FF
:100230009F92AF92BF92CF92DF92EF92FF924B01CB
:100240005C010E94F2006B017C010E94F2006C19BB
:100250007D098E099F09683E734081059105A8F3C9
:1002600021E0821A9108A108B10888EEC80E83E047
:10027000D81EE11CF11C81149104A104B10429F7DA
:10028000FF90EF90DF90CF90BF90AF909F908F90B6
:100290000895AF92BF92CF92DF92EF92FF920F93A9
:1002A0001F93CF93DF936C017B018B01040F151F0C
:1002B000EB015E01AE18BF08C017D10759F0699174
:1002C000D601ED91FC910190F081E02DC6010995D8
:1002D000892B79F7C501DF91CF911F910F91FF9085
:1002E000EF90DF90CF90BF90AF900895FC01538DB9
:1002F000448D252F30E0842F90E0821B930B541700
:1003000010F0CF96089501970895FC01918D828D8C
:10031000981761F0A28DAE0FBF2FB11D5D968C9125
:10032000928D9F5F9F73928F90E008958FEF9FEF64
:100330000895FC01918D828D981731F0828DE80F20
:10034000F11D858D90E008958FEF9FEF0895FC01DA
:10035000918D228D892F90E0805C9F4F821B9109A7
:100360008F739927089583ED91E00E94A70121E002
:10037000892B09F420E0822F089580E090E0892BFA
:1003800029F00E94B30181110C9400000895FC0132
:10039000A48DA80FB92FB11DA35ABF4F2C91848DE6
:1003A00090E001968F739927848FA689B7892C9343
:1003B000A089B1898C91837080648C93938D848D96
:1003C000981306C00288F389E02D80818F7D808399
:1003D0000895EF92FF920F931F93CF93DF93EC0159
:1003E00081E0888F9B8D8C8D98131AC0E889F989DC
:1003F000808185FF15C09FB7F894EE89FF896083DF
:10040000E889F98980818370806480839FBF81E05F
:1004100090E0DF91CF911F910F91FF90EF900895A1
:10042000F62E0B8D10E00F5F1F4F0F731127E02E7C
:100430008C8D8E110CC00FB607FCFACFE889F989B4
:10044000808185FFF5CFCE010E94C701F1CFEB8DF2
:10045000EC0FFD2FF11DE35AFF4FF0829FB7F89488
:100460000B8FEA89FB8980818062CFCFCF93DF93A6
:10047000EC01888D8823B9F0AA89BB89E889F989BC
:100480008C9185FD03C0808186FD0DC00FB607FCF1
:10049000F7CF8C9185FFF2CF808185FFEDCFCE0124
:1004A0000E94C701E9CFDF91CF9108952091C80143
:1004B0003091C9012817390771F49091C6018091D4
:1004C000C701981741F0E091C601F0E0EA57FE4FEE
:1004D000808190E008958FEF9FEF08950895EF9247
:1004E000FF920F931F93CF93DF93DC015C96ED9007
:1004F000FC905D97E114F10479F481E090E01396AB
:100500009C938E93129790E080E0DF91CF911F91A2
:100510000F91FF90EF9008955196ED91FC915297B5
:1005200050968C915097982F90950FB75E962C917E
:100530005E97122F127021FD6095F894208111238F
:1005400019F1282B2083E7012197F1F728E0462FA6
:1005500050E0308160FF1AC0382B3083E7012197CB
:10056000F1F7BA0175956795215089F7112381F04C
:100570008081892380830FBF5C968D919C91019728
:10058000F1F781E090E0C1CF2923DCCF3923E5CF1B
:100590009081892BEFCF2091C8013091C901281794
:1005A000390761F48091C7012091C60190E0805C19
:1005B0009F4F821B91098F739927089590E080E0E7
:1005C00008952091C8013091C90128173907B9F45D
:1005D0009091C6018091C701981789F0E091C601FA
:1005E000F0E0EA57FE4F80812091C60130E02F5F96
:1005F0003F4F2F7333272093C60190E008958FEF6C
:100600009FEF089590E080E00895FB0101900020A5
:10061000E9F73197AF01461B570BDC01ED91FC91D7
:100620000280F381E02D0994CF93DF93BC0183ED29
:1006300091E00E940503EC0164E271E083ED91E03A
:100640000E9405038C0F9D1FDF91CF9108951F928B
:100650000F920FB60F9211242F933F938F939F9376
:10066000AF93BF938091CB019091CC01A091CD012C
:10067000B091CE013091CA0123E0230F2D3758F5F8
:100680000196A11DB11D2093CA018093CB019093C7
:10069000CC01A093CD01B093CE018091CF01909178
:1006A000D001A091D101B091D2010196A11DB11D3F
:1006B0008093CF019093D001A093D101B093D20148
:1006C000BF91AF919F918F913F912F910F900FBE4E
:1006D0000F901F90189526E8230F0296A11DB11DBB
:1006E000D2CF1F920F920FB60F9211242F933F93E8
:1006F0004F935F936F937F938F939F93AF93BF932A
:10070000EF93FF9383ED91E00E94C701FF91EF917A
:10071000BF91AF919F918F917F916F915F914F9119
:100720003F912F910F900FBE0F901F9018951F9221
:100730000F920FB60F9211242F938F939F93EF93E5
:10074000FF93E091E301F091E4018081E091E90100
:10075000F091EA0182FD1BC090818091EC018F5FD6
:100760008F732091ED01821741F0E091EC01F0E0F0
:10077000ED52FE4F958F8093EC01FF91EF919F9189
:100780008F912F910F900FBE0F901F901895808121
:10079000F4CF1F920F920FB60F9211242F933F9315
:1007A0004F935F936F937F938F939F93AF93BF9379
:1007B000EF93FF93E091C801F091C901309749F0A0
:1007C000A685B7858585968D91FF14C09C91892358
:1007D000A1F4FF91EF91BF91AF919F918F917F9184
:1007E0006F915F914F913F912F910F900FBE0F909E
:1007F0001F9018959C91892361F7A389B4899C91D6
:100800008589809589238C93868997890197F1F74B
:10081000608D718DA685B785558538E020E0CB01C8
:100820000197F1F7822F90E095958795282F4C91AD
:10083000452309F02068315091F7868D81FD209580
:100840008091C70190E001968F7399273091C6017E
:10085000381799F0A091C701B0E0AA57BE4F2C936A
:100860008093C701828D938D0197F1F7A389B48995
:100870008C919589892B8C93ACCF868D8160868FE6
:10088000F1CF1F93CF93DF93282F30E0F901EE587B
:10089000FF4F8491F901E255FF4FD491F901E656DB
:1008A000FF4FC491CC23A9F0162F81110E948D0017
:1008B000EC2FF0E0EE0FFF1FE057FF4FA591B49132
:1008C0008FB7F894EC91111108C0D095DE23DC931A
:1008D0008FBFDF91CF911F910895DE2BF8CF10923B
:1008E000D6011092D50188EE93E0A0E0B0E08093AD
:1008F000D7019093D801A093D901B093DA0124E0F5
:1009000031E03093D4012093D30125EC30E03093D3
:10091000E0012093DF0124EC30E03093E2012093EA
:10092000E10120EC30E03093E4012093E30121EC7D
:1009300030E03093E6012093E50122EC30E0309383
:10094000E8012093E70126EC30E03093EA012093A0
:10095000E9011092EC011092ED011092EE0110925B
:10096000EF011092730210927202809374029093BE
:100970007502A0937602B093770286E191E090939E
:100980007102809370021092870210928602109278
:1009900089021092880210928B0210928A021092A1
:1009A0008D0210928C0260918E026E7F6D7F60933B
:1009B0008E026695617081E068270E94410461E0C3
:1009C00081E00E94B600EFEAF0E0E491E09380025B
:1009D000EBE9F0E0E491F0E0EE0FFF1FE057FF4F8E
:1009E00085919491909382028093810260E080E0EF
:1009F0000E94B60080918E0281FD04C061E080E01B
:100A00000E94410410927C02EEEAF0E0E491E0934F
:100A10007D02EAE9F0E0E491F0E0EE0FFF1FEA5713
:100A2000FF4F8591949190937F0280937E02089569
:100A3000789484B5826084BD84B5816084BD85B5B9
:100A4000826085BD85B5816085BD80916E008160C5
:100A500080936E001092810080918100826080936B
:100A6000810080918100816080938100809180006D
:100A70008160809380008091B10084608093B10098
:100A80008091B00081608093B00080917A00846092
:100A900080937A0080917A00826080937A008091BE
:100AA0007A00816080937A0080917A0080688093D8
:100AB0007A001092C10062E087E00E94B6001092B6
:100AC0008B0210928A021092890210928802109270
:100AD0008702109286028DE991E090938D028093B7
:100AE0008C0290917C02963108F047C02DEB30E0EB
:100AF00030938702209386022BE931E030938902FC
:100B0000209388022CE231E030938B0220938A02FA
:100B10002091680084E0983048F031E09E3008F47D
:100B200030E081E001C0880F3A95EAF7822B80938C
:100B300068002DE630E0983050F02BE630E09E3033
:100B400030F02CE630E0963110F030E020E03093C9
:100B5000840220938302292F30E0983008F0E8C007
:100B600081E001C0880F9A95EAF780938502809111
:100B70008C0290918D020197F1F780918A029091F9
:100B80008B02892B49F1E091C801F091C90182E003
:100B9000E037F80709F1309739F0A389B4899C91BF
:100BA0008589809589238C9380918E028E7F809396
:100BB0008E021092C7011092C60180E792E09093D6
:100BC000C9018093C801E0918302F0918402808181
:100BD00090918502892B8083E091E301F091E401FB
:100BE00082E08083E091DF01F091E0011082E091EA
:100BF000E101F091E2018FEC80831092EB01E09132
:100C0000E701F091E80186E08083E091E501F09151
:100C1000E601808180618083E091E501F091E60149
:100C2000808188608083E091E501F091E601808118
:100C300080688083E091E501F091E60180818F7DFD
:100C4000808364E670E080E090E00E941701C9E7CD
:100C5000D0E005EB10E091EAE92E90E0F92E20E0DB
:100C6000C22E20E0D22EFE018491F801A490F7015B
:100C7000B490B1106AC087E291E00E94140368EC5E
:100C800070E080E090E00E94170186E391E00E940E
:100C9000140365E471E080E792E00E94050364E6D6
:100CA00070E080E090E00E94170160E571E080E76D
:100CB00092E00E94050364E670E080E090E00E940C
:100CC000170167E671E080E792E00E94050364E6A1
:100CD00070E080E090E00E94170164E271E080E73C
:100CE00092E00E9405038AE791E00E94140360E904
:100CF00071E080E090E00E94170180E792E00E949E
:100D0000CB02892B49F080E792E00E94E102682F34
:100D100083ED91E00E94E901C114D10409F4A3CF4D
:100D20000E94B301882309F49ECF0E9400009BCF4C
:100D30009E3040F42850310981E001C0880F2A9587
:100D4000EAF713CF2E503109F7CF81110E948D00A1
:100D5000EB2DF0E0EE0FFF1FEA57FF4FA591B49186
:100D60008C91A82209F487CFC8CF86E191E09093B7
:100D70007102809370028091C8019091C9018057DF
:100D8000924071F4E0918302F0918402908180910D
:100D900085028095892380831092C9011092C80131
:100DA0000895EE0FFF1F0590F491E02D099410E0D7
:100DB000C2E6D0E004C0FE010E94D1062196C336EF
:080DC000D107C9F7F894FFCF39
:100DC80000000000E901490176013602A70185010A
:100DD8009901000000006F02490102036E02CB0274
:100DE800E10256020D0A00427574746F6E2070722B
:100DF80065737365640053656E64696E6720534D4F
:100E0800532E2E2E0041542B434D47463D310D00A5
:100E180041542B434D47533D222B39383635353312
:100E280033363638220D0053494D38303031206979
:100E38007320776F726B696E6700546578742053FE
:060E4800656E742E00002F
:00000001FF
